{"abi":[{"type":"function","name":"a","inputs":[],"outputs":[{"name":"","type":"uint256","internalType":"uint256"}],"stateMutability":"view"},{"type":"function","name":"b","inputs":[],"outputs":[{"name":"","type":"uint256","internalType":"uint256"}],"stateMutability":"view"},{"type":"function","name":"c","inputs":[],"outputs":[{"name":"","type":"bytes32","internalType":"bytes32"}],"stateMutability":"view"}],"bytecode":{"object":"0x608060405260015f55600260015562ababab5f1b6002553480156020575f5ffd5b5061012d8061002e5f395ff3fe6080604052348015600e575f5ffd5b5060043610603a575f3560e01c80630dbe671f14603e5780634df7e3d0146058578063c3da42b8146072575b5f5ffd5b6044608c565b604051604f919060b3565b60405180910390f35b605e6091565b6040516069919060b3565b60405180910390f35b60786097565b6040516083919060e0565b60405180910390f35b5f5481565b60015481565b60025481565b5f819050919050565b60ad81609d565b82525050565b5f60208201905060c45f83018460a6565b92915050565b5f819050919050565b60da8160ca565b82525050565b5f60208201905060f15f83018460d3565b9291505056fea264697066735822122023b7d39eb01ab1a65624c2a1c9c07cf5f91adbc64357cea0d11134345122d23b64736f6c634300081e0033","linkReferences":{}},"methodIdentifiers":{"a()":"0dbe671f","b()":"4df7e3d0","c()":"c3da42b8"},"id":21}