{"abi":[{"type":"constructor","inputs":[],"stateMutability":"nonpayable"},{"type":"function","name":"UPGRADE_INTERFACE_VERSION","inputs":[],"outputs":[{"name":"","type":"string","internalType":"string"}],"stateMutability":"view"},{"type":"function","name":"getNumber","inputs":[],"outputs":[{"name":"","type":"uint256","internalType":"uint256"}],"stateMutability":"view"},{"type":"function","name":"initialize","inputs":[],"outputs":[],"stateMutability":"nonpayable"},{"type":"function","name":"owner","inputs":[],"outputs":[{"name":"","type":"address","internalType":"address"}],"stateMutability":"view"},{"type":"function","name":"proxiableUUID","inputs":[],"outputs":[{"name":"","type":"bytes32","internalType":"bytes32"}],"stateMutability":"view"},{"type":"function","name":"renounceOwnership","inputs":[],"outputs":[],"stateMutability":"nonpayable"},{"type":"function","name":"transferOwnership","inputs":[{"name":"newOwner","type":"address","internalType":"address"}],"outputs":[],"stateMutability":"nonpayable"},{"type":"function","name":"upgradeToAndCall","inputs":[{"name":"newImplementation","type":"address","internalType":"address"},{"name":"data","type":"bytes","internalType":"bytes"}],"outputs":[],"stateMutability":"payable"},{"type":"function","name":"version","inputs":[],"outputs":[{"name":"","type":"uint256","internalType":"uint256"}],"stateMutability":"pure"},{"type":"event","name":"Initialized","inputs":[{"name":"version","type":"uint64","indexed":false,"internalType":"uint64"}],"anonymous":false},{"type":"event","name":"OwnershipTransferred","inputs":[{"name":"previousOwner","type":"address","indexed":true,"internalType":"address"},{"name":"newOwner","type":"address","indexed":true,"internalType":"address"}],"anonymous":false},{"type":"event","name":"Upgraded","inputs":[{"name":"implementation","type":"address","indexed":true,"internalType":"address"}],"anonymous":false},{"type":"error","name":"AddressEmptyCode","inputs":[{"name":"target","type":"address","internalType":"address"}]},{"type":"error","name":"ERC1967InvalidImplementation","inputs":[{"name":"implementation","type":"address","internalType":"address"}]},{"type":"error","name":"ERC1967NonPayable","inputs":[]},{"type":"error","name":"FailedCall","inputs":[]},{"type":"error","name":"InvalidInitialization","inputs":[]},{"type":"error","name":"NotInitializing","inputs":[]},{"type":"error","name":"OwnableInvalidOwner","inputs":[{"name":"owner","type":"address","internalType":"address"}]},{"type":"error","name":"OwnableUnauthorizedAccount","inputs":[{"name":"account","type":"address","internalType":"address"}]},{"type":"error","name":"UUPSUnauthorizedCallContext","inputs":[]},{"type":"error","name":"UUPSUnsupportedProxiableUUID","inputs":[{"name":"slot","type":"bytes32","internalType":"bytes32"}]}],"bytecode":{"object":"0x60a06040523073ffffffffffffffffffffffffffffffffffffffff1660809073ffffffffffffffffffffffffffffffffffffffff16815250348015610042575f5ffd5b5061005161005660201b60201c565b6101d1565b5f61006561015460201b60201c565b9050805f0160089054906101000a900460ff16156100af576040517ff92ee8a900000000000000000000000000000000000000000000000000000000815260040160405180910390fd5b67ffffffffffffffff8016815f015f9054906101000a900467ffffffffffffffff1667ffffffffffffffff16146101515767ffffffffffffffff815f015f6101000a81548167ffffffffffffffff021916908367ffffffffffffffff1602179055507fc7f505b2f371ae2175ee4913f4499e1f2633a7b5936321eed1cdaeb6115181d267ffffffffffffffff60405161014891906101b8565b60405180910390a15b50565b5f5f61016461016d60201b60201c565b90508091505090565b5f7ff0c57e16840df040f15088dc2f81fe391c3923bec73e23a9662efc9c229c6a005f1b905090565b5f67ffffffffffffffff82169050919050565b6101b281610196565b82525050565b5f6020820190506101cb5f8301846101a9565b92915050565b6080516111346101f75f395f81816104b20152818161050701526106c101526111345ff3fe608060405260043610610085575f3560e01c80638129fc1c116100585780638129fc1c1461010f5780638da5cb5b14610125578063ad3cb1cc1461014f578063f2c9ecd814610179578063f2fde38b146101a357610085565b80634f1ef2861461008957806352d1902d146100a557806354fd4d50146100cf578063715018a6146100f9575b5f5ffd5b6100a3600480360381019061009e9190610eac565b6101cb565b005b3480156100b0575f5ffd5b506100b96101ea565b6040516100c69190610f1e565b60405180910390f35b3480156100da575f5ffd5b506100e361021b565b6040516100f09190610f4f565b60405180910390f35b348015610104575f5ffd5b5061010d610223565b005b34801561011a575f5ffd5b50610123610236565b005b348015610130575f5ffd5b506101396103b6565b6040516101469190610f77565b60405180910390f35b34801561015a575f5ffd5b506101636103eb565b6040516101709190610ff0565b60405180910390f35b348015610184575f5ffd5b5061018d610424565b60405161019a9190610f4f565b60405180910390f35b3480156101ae575f5ffd5b506101c960048036038101906101c49190611010565b61042c565b005b6101d36104b0565b6101dc82610596565b6101e682826105a1565b5050565b5f6101f36106bf565b7f360894a13ba1a3210667c828492db98dca3e2076cc3735a920a3ca505d382bbc5f1b905090565b5f6001905090565b61022b610746565b6102345f6107cd565b565b5f61023f61089e565b90505f815f0160089054906101000a900460ff161590505f825f015f9054906101000a900467ffffffffffffffff1690505f5f8267ffffffffffffffff161480156102875750825b90505f60018367ffffffffffffffff161480156102ba57505f3073ffffffffffffffffffffffffffffffffffffffff163b145b9050811580156102c8575080155b156102ff576040517ff92ee8a900000000000000000000000000000000000000000000000000000000815260040160405180910390fd5b6001855f015f6101000a81548167ffffffffffffffff021916908367ffffffffffffffff160217905550831561034c576001855f0160086101000a81548160ff0219169083151502179055505b610355336108b1565b83156103af575f855f0160086101000a81548160ff0219169083151502179055507fc7f505b2f371ae2175ee4913f4499e1f2633a7b5936321eed1cdaeb6115181d260016040516103a69190611090565b60405180910390a15b5050505050565b5f5f6103c06108c5565b9050805f015f9054906101000a900473ffffffffffffffffffffffffffffffffffffffff1691505090565b6040518060400160405280600581526020017f352e302e3000000000000000000000000000000000000000000000000000000081525081565b5f5f54905090565b610434610746565b5f73ffffffffffffffffffffffffffffffffffffffff168173ffffffffffffffffffffffffffffffffffffffff16036104a4575f6040517f1e4fbdf700000000000000000000000000000000000000000000000000000000815260040161049b9190610f77565b60405180910390fd5b6104ad816107cd565b50565b7f000000000000000000000000000000000000000000000000000000000000000073ffffffffffffffffffffffffffffffffffffffff163073ffffffffffffffffffffffffffffffffffffffff16148061055d57507f000000000000000000000000000000000000000000000000000000000000000073ffffffffffffffffffffffffffffffffffffffff166105446108ec565b73ffffffffffffffffffffffffffffffffffffffff1614155b15610594576040517fe07c8dba00000000000000000000000000000000000000000000000000000000815260040160405180910390fd5b565b61059e610746565b50565b8173ffffffffffffffffffffffffffffffffffffffff166352d1902d6040518163ffffffff1660e01b8152600401602060405180830381865afa92505050801561060957506040513d601f19601f8201168201806040525081019061060691906110d3565b60015b61064a57816040517f4c9c8ce30000000000000000000000000000000000000000000000000000000081526004016106419190610f77565b60405180910390fd5b7f360894a13ba1a3210667c828492db98dca3e2076cc3735a920a3ca505d382bbc5f1b81146106b057806040517faa1d49a40000000000000000000000000000000000000000000000000000000081526004016106a79190610f1e565b60405180910390fd5b6106ba838361093f565b505050565b7f000000000000000000000000000000000000000000000000000000000000000073ffffffffffffffffffffffffffffffffffffffff163073ffffffffffffffffffffffffffffffffffffffff1614610744576040517fe07c8dba00000000000000000000000000000000000000000000000000000000815260040160405180910390fd5b565b61074e6109b1565b73ffffffffffffffffffffffffffffffffffffffff1661076c6103b6565b73ffffffffffffffffffffffffffffffffffffffff16146107cb5761078f6109b1565b6040517f118cdaa70000000000000000000000000000000000000000000000000000000081526004016107c29190610f77565b60405180910390fd5b565b5f6107d66108c5565b90505f815f015f9054906101000a900473ffffffffffffffffffffffffffffffffffffffff16905082825f015f6101000a81548173ffffffffffffffffffffffffffffffffffffffff021916908373ffffffffffffffffffffffffffffffffffffffff1602179055508273ffffffffffffffffffffffffffffffffffffffff168173ffffffffffffffffffffffffffffffffffffffff167f8be0079c531659141344cd1fd0a4f28419497f9722a3daafe3b4186f6b6457e060405160405180910390a3505050565b5f5f6108a86109b8565b90508091505090565b6108b96109e1565b6108c281610a21565b50565b5f7f9016d09d72d40fdae2fd8ceac6b6234c7706214fd39c1cd1e609a0528c199300905090565b5f6109187f360894a13ba1a3210667c828492db98dca3e2076cc3735a920a3ca505d382bbc5f1b610aa5565b5f015f9054906101000a900473ffffffffffffffffffffffffffffffffffffffff16905090565b61094882610aae565b8173ffffffffffffffffffffffffffffffffffffffff167fbc7cd75a20ee27fd9adebab32041f755214dbc6bffa90cc0225b39da2e5c2d3b60405160405180910390a25f815111156109a45761099e8282610b77565b506109ad565b6109ac610c68565b5b5050565b5f33905090565b5f7ff0c57e16840df040f15088dc2f81fe391c3923bec73e23a9662efc9c229c6a005f1b905090565b6109e9610ca4565b610a1f576040517fd7e6bcf800000000000000000000000000000000000000000000000000000000815260040160405180910390fd5b565b610a296109e1565b5f73ffffffffffffffffffffffffffffffffffffffff168173ffffffffffffffffffffffffffffffffffffffff1603610a99575f6040517f1e4fbdf7000000000000000000000000000000000000000000000000000000008152600401610a909190610f77565b60405180910390fd5b610aa2816107cd565b50565b5f819050919050565b5f8173ffffffffffffffffffffffffffffffffffffffff163b03610b0957806040517f4c9c8ce3000000000000000000000000000000000000000000000000000000008152600401610b009190610f77565b60405180910390fd5b80610b357f360894a13ba1a3210667c828492db98dca3e2076cc3735a920a3ca505d382bbc5f1b610aa5565b5f015f6101000a81548173ffffffffffffffffffffffffffffffffffffffff021916908373ffffffffffffffffffffffffffffffffffffffff16021790555050565b60605f610b848484610cc2565b9050808015610bba57505f610b97610cd6565b1180610bb957505f8473ffffffffffffffffffffffffffffffffffffffff163b115b5b15610bcf57610bc7610cdd565b915050610c62565b8015610c1257836040517f9996b315000000000000000000000000000000000000000000000000000000008152600401610c099190610f77565b60405180910390fd5b5f610c1b610cd6565b1115610c2e57610c29610cfa565b610c60565b6040517fd6bda27500000000000000000000000000000000000000000000000000000000815260040160405180910390fd5b505b92915050565b5f341115610ca2576040517fb398979f00000000000000000000000000000000000000000000000000000000815260040160405180910390fd5b565b5f610cad61089e565b5f0160089054906101000a900460ff16905090565b5f5f5f835160208501865af4905092915050565b5f3d905090565b606060405190503d81523d5f602083013e3d602001810160405290565b6040513d5f823e3d81fd5b5f604051905090565b5f5ffd5b5f5ffd5b5f73ffffffffffffffffffffffffffffffffffffffff82169050919050565b5f610d3f82610d16565b9050919050565b610d4f81610d35565b8114610d59575f5ffd5b50565b5f81359050610d6a81610d46565b92915050565b5f5ffd5b5f5ffd5b5f601f19601f8301169050919050565b7f4e487b71000000000000000000000000000000000000000000000000000000005f52604160045260245ffd5b610dbe82610d78565b810181811067ffffffffffffffff82111715610ddd57610ddc610d88565b5b80604052505050565b5f610def610d05565b9050610dfb8282610db5565b919050565b5f67ffffffffffffffff821115610e1a57610e19610d88565b5b610e2382610d78565b9050602081019050919050565b828183375f83830152505050565b5f610e50610e4b84610e00565b610de6565b905082815260208101848484011115610e6c57610e6b610d74565b5b610e77848285610e30565b509392505050565b5f82601f830112610e9357610e92610d70565b5b8135610ea3848260208601610e3e565b91505092915050565b5f5f60408385031215610ec257610ec1610d0e565b5b5f610ecf85828601610d5c565b925050602083013567ffffffffffffffff811115610ef057610eef610d12565b5b610efc85828601610e7f565b9150509250929050565b5f819050919050565b610f1881610f06565b82525050565b5f602082019050610f315f830184610f0f565b92915050565b5f819050919050565b610f4981610f37565b82525050565b5f602082019050610f625f830184610f40565b92915050565b610f7181610d35565b82525050565b5f602082019050610f8a5f830184610f68565b92915050565b5f81519050919050565b5f82825260208201905092915050565b8281835e5f83830152505050565b5f610fc282610f90565b610fcc8185610f9a565b9350610fdc818560208601610faa565b610fe581610d78565b840191505092915050565b5f6020820190508181035f8301526110088184610fb8565b905092915050565b5f6020828403121561102557611024610d0e565b5b5f61103284828501610d5c565b91505092915050565b5f819050919050565b5f67ffffffffffffffff82169050919050565b5f819050919050565b5f61107a6110756110708461103b565b611057565b611044565b9050919050565b61108a81611060565b82525050565b5f6020820190506110a35f830184611081565b92915050565b6110b281610f06565b81146110bc575f5ffd5b50565b5f815190506110cd816110a9565b92915050565b5f602082840312156110e8576110e7610d0e565b5b5f6110f5848285016110bf565b9150509291505056fea2646970667358221220b61d8758c08ff68c9b188f90617e06be00cd1093f1de9dc3e65b931879274eaa64736f6c634300081e0033","linkReferences":{}},"methodIdentifiers":{"UPGRADE_INTERFACE_VERSION()":"ad3cb1cc","getNumber()":"f2c9ecd8","initialize()":"8129fc1c","owner()":"8da5cb5b","proxiableUUID()":"52d1902d","renounceOwnership()":"715018a6","transferOwnership(address)":"f2fde38b","upgradeToAndCall(address,bytes)":"4f1ef286","version()":"54fd4d50"},"id":33}