{"abi":[{"type":"function","name":"a","inputs":[],"outputs":[{"name":"","type":"uint128","internalType":"uint128"}],"stateMutability":"view"},{"type":"function","name":"addr","inputs":[],"outputs":[{"name":"","type":"address","internalType":"address"}],"stateMutability":"view"},{"type":"function","name":"b","inputs":[],"outputs":[{"name":"","type":"uint64","internalType":"uint64"}],"stateMutability":"view"},{"type":"function","name":"c","inputs":[],"outputs":[{"name":"","type":"uint32","internalType":"uint32"}],"stateMutability":"view"},{"type":"function","name":"d","inputs":[],"outputs":[{"name":"","type":"uint32","internalType":"uint32"}],"stateMutability":"view"},{"type":"function","name":"x","inputs":[],"outputs":[{"name":"","type":"uint64","internalType":"uint64"}],"stateMutability":"view"},{"type":"function","name":"y","inputs":[],"outputs":[{"name":"","type":"uint32","internalType":"uint32"}],"stateMutability":"view"}],"bytecode":{"object":"0x608060405260015f5f6101000a8154816fffffffffffffffffffffffffffffffff02191690836fffffffffffffffffffffffffffffffff16021790555060025f60106101000a81548167ffffffffffffffff021916908367ffffffffffffffff16021790555060035f60186101000a81548163ffffffff021916908363ffffffff16021790555060045f601c6101000a81548163ffffffff021916908363ffffffff16021790555034801560b1575f5ffd5b5061034c806100bf5f395ff3fe608060405234801561000f575f5ffd5b506004361061007b575f3560e01c8063767800de11610059578063767800de146100d95780638a054ac2146100f7578063a56dfe4a14610115578063c3da42b8146101335761007b565b80630c55699c1461007f5780630dbe671f1461009d5780634df7e3d0146100bb575b5f5ffd5b610087610151565b604051610094919061022b565b60405180910390f35b6100a561016b565b6040516100b2919061026e565b60405180910390f35b6100c361018b565b6040516100d0919061022b565b60405180910390f35b6100e16101a4565b6040516100ee91906102c6565b60405180910390f35b6100ff6101c9565b60405161010c91906102fd565b60405180910390f35b61011d6101de565b60405161012a91906102fd565b60405180910390f35b61013b6101f4565b60405161014891906102fd565b60405180910390f35b600160149054906101000a900467ffffffffffffffff1681565b5f5f9054906101000a90046fffffffffffffffffffffffffffffffff1681565b5f60109054906101000a900467ffffffffffffffff1681565b60015f9054906101000a900473ffffffffffffffffffffffffffffffffffffffff1681565b5f601c9054906101000a900463ffffffff1681565b6001601c9054906101000a900463ffffffff1681565b5f60189054906101000a900463ffffffff1681565b5f67ffffffffffffffff82169050919050565b61022581610209565b82525050565b5f60208201905061023e5f83018461021c565b92915050565b5f6fffffffffffffffffffffffffffffffff82169050919050565b61026881610244565b82525050565b5f6020820190506102815f83018461025f565b92915050565b5f73ffffffffffffffffffffffffffffffffffffffff82169050919050565b5f6102b082610287565b9050919050565b6102c0816102a6565b82525050565b5f6020820190506102d95f8301846102b7565b92915050565b5f63ffffffff82169050919050565b6102f7816102df565b82525050565b5f6020820190506103105f8301846102ee565b9291505056fea2646970667358221220412492f3232a0a2c1a118d0e639c6826cd38150d0a5c5779976cb569db1aa9be64736f6c634300081e0033","linkReferences":{}},"methodIdentifiers":{"a()":"0dbe671f","addr()":"767800de","b()":"4df7e3d0","c()":"c3da42b8","d()":"8a054ac2","x()":"0c55699c","y()":"a56dfe4a"},"id":22}