{"abi":[{"type":"constructor","inputs":[{"name":"_owner","type":"address","internalType":"address"}],"stateMutability":"nonpayable"},{"type":"function","name":"deposit","inputs":[{"name":"amount","type":"uint256","internalType":"uint256"}],"outputs":[],"stateMutability":"nonpayable"},{"type":"function","name":"withdraw","inputs":[{"name":"amount","type":"uint256","internalType":"uint256"}],"outputs":[],"stateMutability":"nonpayable"},{"type":"event","name":"Deposited","inputs":[{"name":"depositor","type":"address","indexed":false,"internalType":"address"},{"name":"amount","type":"uint256","indexed":false,"internalType":"uint256"}],"anonymous":false},{"type":"event","name":"Withdrawed","inputs":[{"name":"withdrawer","type":"address","indexed":false,"internalType":"address"},{"name":"amount","type":"uint256","indexed":false,"internalType":"uint256"}],"anonymous":false},{"type":"error","name":"Vault__CannotDepositZero","inputs":[]},{"type":"error","name":"Vault__CannotWithdrawZero","inputs":[]},{"type":"error","name":"Vault__NoEnoughMoneyToWithdraw","inputs":[]}],"bytecode":{"object":"0x60a060405234801561000f575f5ffd5b5060405161054e38038061054e833981810160405281019061003191906100c9565b8073ffffffffffffffffffffffffffffffffffffffff1660808173ffffffffffffffffffffffffffffffffffffffff1681525050506100f4565b5f5ffd5b5f73ffffffffffffffffffffffffffffffffffffffff82169050919050565b5f6100988261006f565b9050919050565b6100a88161008e565b81146100b2575f5ffd5b50565b5f815190506100c38161009f565b92915050565b5f602082840312156100de576100dd61006b565b5b5f6100eb848285016100b5565b91505092915050565b6080516104456101095f395f50506104455ff3fe608060405234801561000f575f5ffd5b5060043610610034575f3560e01c80632e1a7d4d14610038578063b6b55f2514610054575b5f5ffd5b610052600480360381019061004d91906102dc565b610070565b005b61006e600480360381019061006991906102dc565b6101c6565b005b5f81036100a9576040517fd02b7b6300000000000000000000000000000000000000000000000000000000815260040160405180910390fd5b8060015f3373ffffffffffffffffffffffffffffffffffffffff1673ffffffffffffffffffffffffffffffffffffffff1681526020019081526020015f20541015610120576040517fd8db0e5800000000000000000000000000000000000000000000000000000000815260040160405180910390fd5b8060015f3373ffffffffffffffffffffffffffffffffffffffff1673ffffffffffffffffffffffffffffffffffffffff1681526020019081526020015f205f82825461016c9190610334565b92505081905550805f5f8282546101839190610334565b925050819055507f6cca423c6ffc06e62a0acc433965e074b11c28479b0449250ce3ff65ac9e39fe33826040516101bb9291906103b5565b60405180910390a150565b5f81036101ff576040517fe5e2cdcf00000000000000000000000000000000000000000000000000000000815260040160405180910390fd5b8060015f3373ffffffffffffffffffffffffffffffffffffffff1673ffffffffffffffffffffffffffffffffffffffff1681526020019081526020015f205f82825461024b91906103dc565b92505081905550805f5f82825461026291906103dc565b925050819055507f2da466a7b24304f47e87fa2e1e5a81b9831ce54fec19055ce277ca2f39ba42c4338260405161029a9291906103b5565b60405180910390a150565b5f5ffd5b5f819050919050565b6102bb816102a9565b81146102c5575f5ffd5b50565b5f813590506102d6816102b2565b92915050565b5f602082840312156102f1576102f06102a5565b5b5f6102fe848285016102c8565b91505092915050565b7f4e487b71000000000000000000000000000000000000000000000000000000005f52601160045260245ffd5b5f61033e826102a9565b9150610349836102a9565b925082820390508181111561036157610360610307565b5b92915050565b5f73ffffffffffffffffffffffffffffffffffffffff82169050919050565b5f61039082610367565b9050919050565b6103a081610386565b82525050565b6103af816102a9565b82525050565b5f6040820190506103c85f830185610397565b6103d560208301846103a6565b9392505050565b5f6103e6826102a9565b91506103f1836102a9565b925082820190508082111561040957610408610307565b5b9291505056fea2646970667358221220b3bfe352ee5f5039c1866c0772112f1895b160d2c15c24ce5476a151fbd150fe64736f6c634300081f0033","linkReferences":{}},"methodIdentifiers":{"deposit(uint256)":"b6b55f25","withdraw(uint256)":"2e1a7d4d"},"id":0}