{"abi":[{"type":"constructor","inputs":[{"name":"_owner","type":"address","internalType":"address"}],"stateMutability":"nonpayable"},{"type":"function","name":"deposit","inputs":[{"name":"amount","type":"uint256","internalType":"uint256"}],"outputs":[],"stateMutability":"nonpayable"},{"type":"function","name":"getUserBalance","inputs":[{"name":"user","type":"address","internalType":"address"}],"outputs":[{"name":"","type":"uint256","internalType":"uint256"}],"stateMutability":"view"},{"type":"function","name":"withdraw","inputs":[{"name":"amount","type":"uint256","internalType":"uint256"}],"outputs":[],"stateMutability":"nonpayable"},{"type":"event","name":"Deposited","inputs":[{"name":"depositor","type":"address","indexed":false,"internalType":"address"},{"name":"amount","type":"uint256","indexed":false,"internalType":"uint256"}],"anonymous":false},{"type":"event","name":"Withdrawed","inputs":[{"name":"withdrawer","type":"address","indexed":false,"internalType":"address"},{"name":"amount","type":"uint256","indexed":false,"internalType":"uint256"}],"anonymous":false},{"type":"error","name":"Vault__CannotDepositZero","inputs":[]},{"type":"error","name":"Vault__CannotWithdrawZero","inputs":[]},{"type":"error","name":"Vault__NoEnoughMoneyToWithdraw","inputs":[]}],"bytecode":{"object":"0x60a060405234801561000f575f5ffd5b5060405161063d38038061063d833981810160405281019061003191906100c9565b8073ffffffffffffffffffffffffffffffffffffffff1660808173ffffffffffffffffffffffffffffffffffffffff1681525050506100f4565b5f5ffd5b5f73ffffffffffffffffffffffffffffffffffffffff82169050919050565b5f6100988261006f565b9050919050565b6100a88161008e565b81146100b2575f5ffd5b50565b5f815190506100c38161009f565b92915050565b5f602082840312156100de576100dd61006b565b5b5f6100eb848285016100b5565b91505092915050565b6080516105346101095f395f50506105345ff3fe608060405234801561000f575f5ffd5b506004361061003f575f3560e01c80632e1a7d4d14610043578063477348921461005f578063b6b55f251461008f575b5f5ffd5b61005d6004803603810190610058919061035d565b6100ab565b005b610079600480360381019061007491906103e2565b610201565b604051610086919061041c565b60405180910390f35b6100a960048036038101906100a4919061035d565b610247565b005b5f81036100e4576040517fd02b7b6300000000000000000000000000000000000000000000000000000000815260040160405180910390fd5b8060015f3373ffffffffffffffffffffffffffffffffffffffff1673ffffffffffffffffffffffffffffffffffffffff1681526020019081526020015f2054101561015b576040517fd8db0e5800000000000000000000000000000000000000000000000000000000815260040160405180910390fd5b8060015f3373ffffffffffffffffffffffffffffffffffffffff1673ffffffffffffffffffffffffffffffffffffffff1681526020019081526020015f205f8282546101a79190610462565b92505081905550805f5f8282546101be9190610462565b925050819055507f6cca423c6ffc06e62a0acc433965e074b11c28479b0449250ce3ff65ac9e39fe33826040516101f69291906104a4565b60405180910390a150565b5f60015f8373ffffffffffffffffffffffffffffffffffffffff1673ffffffffffffffffffffffffffffffffffffffff1681526020019081526020015f20549050919050565b5f8103610280576040517fe5e2cdcf00000000000000000000000000000000000000000000000000000000815260040160405180910390fd5b8060015f3373ffffffffffffffffffffffffffffffffffffffff1673ffffffffffffffffffffffffffffffffffffffff1681526020019081526020015f205f8282546102cc91906104cb565b92505081905550805f5f8282546102e391906104cb565b925050819055507f2da466a7b24304f47e87fa2e1e5a81b9831ce54fec19055ce277ca2f39ba42c4338260405161031b9291906104a4565b60405180910390a150565b5f5ffd5b5f819050919050565b61033c8161032a565b8114610346575f5ffd5b50565b5f8135905061035781610333565b92915050565b5f6020828403121561037257610371610326565b5b5f61037f84828501610349565b91505092915050565b5f73ffffffffffffffffffffffffffffffffffffffff82169050919050565b5f6103b182610388565b9050919050565b6103c1816103a7565b81146103cb575f5ffd5b50565b5f813590506103dc816103b8565b92915050565b5f602082840312156103f7576103f6610326565b5b5f610404848285016103ce565b91505092915050565b6104168161032a565b82525050565b5f60208201905061042f5f83018461040d565b92915050565b7f4e487b71000000000000000000000000000000000000000000000000000000005f52601160045260245ffd5b5f61046c8261032a565b91506104778361032a565b925082820390508181111561048f5761048e610435565b5b92915050565b61049e816103a7565b82525050565b5f6040820190506104b75f830185610495565b6104c4602083018461040d565b9392505050565b5f6104d58261032a565b91506104e08361032a565b92508282019050808211156104f8576104f7610435565b5b9291505056fea2646970667358221220c48d57d06f855453c601b047bb7dd7b551c579af94b46f60d2816d57de479c8264736f6c634300081f0033","linkReferences":{}},"methodIdentifiers":{"deposit(uint256)":"b6b55f25","getUserBalance(address)":"47734892","withdraw(uint256)":"2e1a7d4d"},"id":2}