{"abi":[{"type":"constructor","inputs":[{"name":"_name","type":"string","internalType":"string"},{"name":"_symbol","type":"string","internalType":"string"},{"name":"_initialSupply","type":"uint256","internalType":"uint256"}],"stateMutability":"nonpayable"},{"type":"function","name":"balanceOf","inputs":[{"name":"owner","type":"address","internalType":"address"}],"outputs":[{"name":"balance","type":"uint256","internalType":"uint256"}],"stateMutability":"view"},{"type":"function","name":"getDecimals","inputs":[],"outputs":[{"name":"","type":"uint8","internalType":"uint8"}],"stateMutability":"view"},{"type":"function","name":"getName","inputs":[],"outputs":[{"name":"","type":"string","internalType":"string"}],"stateMutability":"view"},{"type":"function","name":"getSymbol","inputs":[],"outputs":[{"name":"","type":"string","internalType":"string"}],"stateMutability":"view"}],"bytecode":{"object":"0x608060405234801561000f575f5ffd5b506040516109c83803806109c8833981810160405281019061003191906101fa565b82600190816100409190610489565b50815f908161004f9190610489565b50601260025f6101000a81548160ff021916908360ff16021790555080600381905550505050610558565b5f604051905090565b5f5ffd5b5f5ffd5b5f5ffd5b5f5ffd5b5f601f19601f8301169050919050565b7f4e487b71000000000000000000000000000000000000000000000000000000005f52604160045260245ffd5b6100d982610093565b810181811067ffffffffffffffff821117156100f8576100f76100a3565b5b80604052505050565b5f61010a61007a565b905061011682826100d0565b919050565b5f67ffffffffffffffff821115610135576101346100a3565b5b61013e82610093565b9050602081019050919050565b8281835e5f83830152505050565b5f61016b6101668461011b565b610101565b9050828152602081018484840111156101875761018661008f565b5b61019284828561014b565b509392505050565b5f82601f8301126101ae576101ad61008b565b5b81516101be848260208601610159565b91505092915050565b5f819050919050565b6101d9816101c7565b81146101e3575f5ffd5b50565b5f815190506101f4816101d0565b92915050565b5f5f5f6060848603121561021157610210610083565b5b5f84015167ffffffffffffffff81111561022e5761022d610087565b5b61023a8682870161019a565b935050602084015167ffffffffffffffff81111561025b5761025a610087565b5b6102678682870161019a565b9250506040610278868287016101e6565b9150509250925092565b5f81519050919050565b7f4e487b71000000000000000000000000000000000000000000000000000000005f52602260045260245ffd5b5f60028204905060018216806102d057607f821691505b6020821081036102e3576102e261028c565b5b50919050565b5f819050815f5260205f209050919050565b5f6020601f8301049050919050565b5f82821b905092915050565b5f600883026103457fffffffffffffffffffffffffffffffffffffffffffffffffffffffffffffffff8261030a565b61034f868361030a565b95508019841693508086168417925050509392505050565b5f819050919050565b5f61038a610385610380846101c7565b610367565b6101c7565b9050919050565b5f819050919050565b6103a383610370565b6103b76103af82610391565b848454610316565b825550505050565b5f5f905090565b6103ce6103bf565b6103d981848461039a565b505050565b5b818110156103fc576103f15f826103c6565b6001810190506103df565b5050565b601f82111561044157610412816102e9565b61041b846102fb565b8101602085101561042a578190505b61043e610436856102fb565b8301826103de565b50505b505050565b5f82821c905092915050565b5f6104615f1984600802610446565b1980831691505092915050565b5f6104798383610452565b9150826002028217905092915050565b61049282610282565b67ffffffffffffffff8111156104ab576104aa6100a3565b5b6104b582546102b9565b6104c0828285610400565b5f60209050601f8311600181146104f1575f84156104df578287015190505b6104e9858261046e565b865550610550565b601f1984166104ff866102e9565b5f5b8281101561052657848901518255600182019150602085019450602081019050610501565b86831015610543578489015161053f601f891682610452565b8355505b6001600288020188555050505b505050505050565b610463806105655f395ff3fe608060405234801561000f575f5ffd5b506004361061004a575f3560e01c8063150704011461004e57806317d7de7c1461006c57806370a082311461008a578063f0141d84146100ba575b5f5ffd5b6100566100d8565b60405161006391906102c2565b60405180910390f35b610074610167565b60405161008191906102c2565b60405180910390f35b6100a4600480360381019061009f9190610340565b6101f7565b6040516100b19190610383565b60405180910390f35b6100c261023d565b6040516100cf91906103b7565b60405180910390f35b60605f80546100e6906103fd565b80601f0160208091040260200160405190810160405280929190818152602001828054610112906103fd565b801561015d5780601f106101345761010080835404028352916020019161015d565b820191905f5260205f20905b81548152906001019060200180831161014057829003601f168201915b5050505050905090565b606060018054610176906103fd565b80601f01602080910402602001604051908101604052809291908181526020018280546101a2906103fd565b80156101ed5780601f106101c4576101008083540402835291602001916101ed565b820191905f5260205f20905b8154815290600101906020018083116101d057829003601f168201915b5050505050905090565b5f60055f8373ffffffffffffffffffffffffffffffffffffffff1673ffffffffffffffffffffffffffffffffffffffff1681526020019081526020015f20549050919050565b5f60025f9054906101000a900460ff16905090565b5f81519050919050565b5f82825260208201905092915050565b8281835e5f83830152505050565b5f601f19601f8301169050919050565b5f61029482610252565b61029e818561025c565b93506102ae81856020860161026c565b6102b78161027a565b840191505092915050565b5f6020820190508181035f8301526102da818461028a565b905092915050565b5f5ffd5b5f73ffffffffffffffffffffffffffffffffffffffff82169050919050565b5f61030f826102e6565b9050919050565b61031f81610305565b8114610329575f5ffd5b50565b5f8135905061033a81610316565b92915050565b5f60208284031215610355576103546102e2565b5b5f6103628482850161032c565b91505092915050565b5f819050919050565b61037d8161036b565b82525050565b5f6020820190506103965f830184610374565b92915050565b5f60ff82169050919050565b6103b18161039c565b82525050565b5f6020820190506103ca5f8301846103a8565b92915050565b7f4e487b71000000000000000000000000000000000000000000000000000000005f52602260045260245ffd5b5f600282049050600182168061041457607f821691505b602082108103610427576104266103d0565b5b5091905056fea26469706673582212205d8e9ba1399c2c1498906e93e456988d4211e63a2ab8e01e7557bbcd079a859e64736f6c634300081f0033","linkReferences":{}},"methodIdentifiers":{"balanceOf(address)":"70a08231","getDecimals()":"f0141d84","getName()":"17d7de7c","getSymbol()":"15070401"},"id":0}