{"abi":[{"type":"constructor","inputs":[{"name":"_name","type":"string","internalType":"string"},{"name":"_symbol","type":"string","internalType":"string"},{"name":"_initialSupply","type":"uint256","internalType":"uint256"}],"stateMutability":"nonpayable"},{"type":"function","name":"allowance","inputs":[{"name":"owner","type":"address","internalType":"address"},{"name":"spender","type":"address","internalType":"address"}],"outputs":[{"name":"","type":"uint256","internalType":"uint256"}],"stateMutability":"nonpayable"},{"type":"function","name":"approve","inputs":[{"name":"spender","type":"address","internalType":"address"},{"name":"value","type":"uint256","internalType":"uint256"}],"outputs":[{"name":"","type":"bool","internalType":"bool"}],"stateMutability":"nonpayable"},{"type":"function","name":"balanceOf","inputs":[{"name":"owner","type":"address","internalType":"address"}],"outputs":[{"name":"balance","type":"uint256","internalType":"uint256"}],"stateMutability":"view"},{"type":"function","name":"burn","inputs":[{"name":"amount","type":"uint256","internalType":"uint256"}],"outputs":[],"stateMutability":"nonpayable"},{"type":"function","name":"getDecimals","inputs":[],"outputs":[{"name":"","type":"uint8","internalType":"uint8"}],"stateMutability":"view"},{"type":"function","name":"getName","inputs":[],"outputs":[{"name":"","type":"string","internalType":"string"}],"stateMutability":"view"},{"type":"function","name":"getSymbol","inputs":[],"outputs":[{"name":"","type":"string","internalType":"string"}],"stateMutability":"view"},{"type":"function","name":"getTotalSupply","inputs":[],"outputs":[{"name":"","type":"uint256","internalType":"uint256"}],"stateMutability":"view"},{"type":"function","name":"mint","inputs":[{"name":"amount","type":"uint256","internalType":"uint256"}],"outputs":[],"stateMutability":"nonpayable"},{"type":"function","name":"transfer","inputs":[{"name":"to","type":"address","internalType":"address"},{"name":"amount","type":"uint256","internalType":"uint256"}],"outputs":[{"name":"","type":"bool","internalType":"bool"}],"stateMutability":"nonpayable"},{"type":"function","name":"transferFrom","inputs":[{"name":"from","type":"address","internalType":"address"},{"name":"to","type":"address","internalType":"address"},{"name":"amount","type":"uint256","internalType":"uint256"}],"outputs":[{"name":"","type":"bool","internalType":"bool"}],"stateMutability":"nonpayable"},{"type":"event","name":"Burned","inputs":[{"name":"owner","type":"address","indexed":true,"internalType":"address"},{"name":"amount","type":"uint256","indexed":false,"internalType":"uint256"}],"anonymous":false},{"type":"event","name":"Minted","inputs":[{"name":"owner","type":"address","indexed":true,"internalType":"address"},{"name":"amount","type":"uint256","indexed":false,"internalType":"uint256"}],"anonymous":false},{"type":"error","name":"VaultToken__AddressZero","inputs":[{"name":"adderess","type":"address","internalType":"address"}]},{"type":"error","name":"VaultToken__CannotAllowanceToYourself","inputs":[]},{"type":"error","name":"VaultToken__InvalidAllowance","inputs":[]}],"bytecode":{"object":"0x608060405234801561000f575f5ffd5b5060405161137b38038061137b833981810160405281019061003191906101fa565b82600190816100409190610489565b50815f908161004f9190610489565b50601260025f6101000a81548160ff021916908360ff16021790555080600381905550505050610558565b5f604051905090565b5f5ffd5b5f5ffd5b5f5ffd5b5f5ffd5b5f601f19601f8301169050919050565b7f4e487b71000000000000000000000000000000000000000000000000000000005f52604160045260245ffd5b6100d982610093565b810181811067ffffffffffffffff821117156100f8576100f76100a3565b5b80604052505050565b5f61010a61007a565b905061011682826100d0565b919050565b5f67ffffffffffffffff821115610135576101346100a3565b5b61013e82610093565b9050602081019050919050565b8281835e5f83830152505050565b5f61016b6101668461011b565b610101565b9050828152602081018484840111156101875761018661008f565b5b61019284828561014b565b509392505050565b5f82601f8301126101ae576101ad61008b565b5b81516101be848260208601610159565b91505092915050565b5f819050919050565b6101d9816101c7565b81146101e3575f5ffd5b50565b5f815190506101f4816101d0565b92915050565b5f5f5f6060848603121561021157610210610083565b5b5f84015167ffffffffffffffff81111561022e5761022d610087565b5b61023a8682870161019a565b935050602084015167ffffffffffffffff81111561025b5761025a610087565b5b6102678682870161019a565b9250506040610278868287016101e6565b9150509250925092565b5f81519050919050565b7f4e487b71000000000000000000000000000000000000000000000000000000005f52602260045260245ffd5b5f60028204905060018216806102d057607f821691505b6020821081036102e3576102e261028c565b5b50919050565b5f819050815f5260205f209050919050565b5f6020601f8301049050919050565b5f82821b905092915050565b5f600883026103457fffffffffffffffffffffffffffffffffffffffffffffffffffffffffffffffff8261030a565b61034f868361030a565b95508019841693508086168417925050509392505050565b5f819050919050565b5f61038a610385610380846101c7565b610367565b6101c7565b9050919050565b5f819050919050565b6103a383610370565b6103b76103af82610391565b848454610316565b825550505050565b5f5f905090565b6103ce6103bf565b6103d981848461039a565b505050565b5b818110156103fc576103f15f826103c6565b6001810190506103df565b5050565b601f82111561044157610412816102e9565b61041b846102fb565b8101602085101561042a578190505b61043e610436856102fb565b8301826103de565b50505b505050565b5f82821c905092915050565b5f6104615f1984600802610446565b1980831691505092915050565b5f6104798383610452565b9150826002028217905092915050565b61049282610282565b67ffffffffffffffff8111156104ab576104aa6100a3565b5b6104b582546102b9565b6104c0828285610400565b5f60209050601f8311600181146104f1575f84156104df578287015190505b6104e9858261046e565b865550610550565b601f1984166104ff866102e9565b5f5b8281101561052657848901518255600182019150602085019450602081019050610501565b86831015610543578489015161053f601f891682610452565b8355505b6001600288020188555050505b505050505050565b610e16806105655f395ff3fe608060405234801561000f575f5ffd5b50600436106100a7575f3560e01c806370a082311161006f57806370a0823114610163578063a0712d6814610193578063a9059cbb146101af578063c4e41b22146101df578063dd62ed3e146101fd578063f0141d841461022d576100a7565b8063095ea7b3146100ab57806315070401146100db57806317d7de7c146100f957806323b872dd1461011757806342966c6814610147575b5f5ffd5b6100c560048036038101906100c09190610a87565b61024b565b6040516100d29190610adf565b60405180910390f35b6100e3610343565b6040516100f09190610b68565b60405180910390f35b6101016103d2565b60405161010e9190610b68565b60405180910390f35b610131600480360381019061012c9190610b88565b610462565b60405161013e9190610adf565b60405180910390f35b610161600480360381019061015c9190610bd8565b6105a2565b005b61017d60048036038101906101789190610c03565b61065e565b60405161018a9190610c3d565b60405180910390f35b6101ad60048036038101906101a89190610bd8565b6106a4565b005b6101c960048036038101906101c49190610a87565b610760565b6040516101d69190610adf565b60405180910390f35b6101e7610811565b6040516101f49190610c3d565b60405180910390f35b61021760048036038101906102129190610c56565b61081a565b6040516102249190610c3d565b60405180910390f35b6102356109e1565b6040516102429190610caf565b60405180910390f35b5f5f73ffffffffffffffffffffffffffffffffffffffff168373ffffffffffffffffffffffffffffffffffffffff16036102bc57826040517f076d0c0a0000000000000000000000000000000000000000000000000000000081526004016102b39190610cd7565b60405180910390fd5b8160065f3373ffffffffffffffffffffffffffffffffffffffff1673ffffffffffffffffffffffffffffffffffffffff1681526020019081526020015f205f8573ffffffffffffffffffffffffffffffffffffffff1673ffffffffffffffffffffffffffffffffffffffff1681526020019081526020015f20819055506001905092915050565b60605f805461035190610d1d565b80601f016020809104026020016040519081016040528092919081815260200182805461037d90610d1d565b80156103c85780601f1061039f576101008083540402835291602001916103c8565b820191905f5260205f20905b8154815290600101906020018083116103ab57829003601f168201915b5050505050905090565b6060600180546103e190610d1d565b80601f016020809104026020016040519081016040528092919081815260200182805461040d90610d1d565b80156104585780601f1061042f57610100808354040283529160200191610458565b820191905f5260205f20905b81548152906001019060200180831161043b57829003601f168201915b5050505050905090565b5f8160055f8673ffffffffffffffffffffffffffffffffffffffff1673ffffffffffffffffffffffffffffffffffffffff1681526020019081526020015f205f8282546104af9190610d7a565b925050819055508160055f8573ffffffffffffffffffffffffffffffffffffffff1673ffffffffffffffffffffffffffffffffffffffff1681526020019081526020015f205f8282546105029190610dad565b925050819055508160065f8673ffffffffffffffffffffffffffffffffffffffff1673ffffffffffffffffffffffffffffffffffffffff1681526020019081526020015f205f8573ffffffffffffffffffffffffffffffffffffffff1673ffffffffffffffffffffffffffffffffffffffff1681526020019081526020015f205f8282546105909190610d7a565b92505081905550600190509392505050565b8060055f3373ffffffffffffffffffffffffffffffffffffffff1673ffffffffffffffffffffffffffffffffffffffff1681526020019081526020015f205f8282546105ee9190610d7a565b925050819055508060045f8282546106069190610d7a565b925050819055503373ffffffffffffffffffffffffffffffffffffffff167f696de425f79f4a40bc6d2122ca50507f0efbeabbff86a84871b7196ab8ea8df7826040516106539190610c3d565b60405180910390a250565b5f60055f8373ffffffffffffffffffffffffffffffffffffffff1673ffffffffffffffffffffffffffffffffffffffff1681526020019081526020015f20549050919050565b8060055f3373ffffffffffffffffffffffffffffffffffffffff1673ffffffffffffffffffffffffffffffffffffffff1681526020019081526020015f205f8282546106f09190610dad565b925050819055508060045f8282546107089190610dad565b925050819055503373ffffffffffffffffffffffffffffffffffffffff167f30385c845b448a36257a6a1716e6ad2e1bc2cbe333cde1e69fe849ad6511adfe826040516107559190610c3d565b60405180910390a250565b5f8160055f3373ffffffffffffffffffffffffffffffffffffffff1673ffffffffffffffffffffffffffffffffffffffff1681526020019081526020015f205f8282546107ad9190610d7a565b925050819055508160055f8573ffffffffffffffffffffffffffffffffffffffff1673ffffffffffffffffffffffffffffffffffffffff1681526020019081526020015f205f8282546108009190610dad565b925050819055506001905092915050565b5f600454905090565b5f5f73ffffffffffffffffffffffffffffffffffffffff168373ffffffffffffffffffffffffffffffffffffffff160361088b57826040517f076d0c0a0000000000000000000000000000000000000000000000000000000081526004016108829190610cd7565b60405180910390fd5b5f73ffffffffffffffffffffffffffffffffffffffff168273ffffffffffffffffffffffffffffffffffffffff16036108fb57816040517f076d0c0a0000000000000000000000000000000000000000000000000000000081526004016108f29190610cd7565b60405180910390fd5b3373ffffffffffffffffffffffffffffffffffffffff168273ffffffffffffffffffffffffffffffffffffffff1603610960576040517fa30373bc00000000000000000000000000000000000000000000000000000000815260040160405180910390fd5b60065f8473ffffffffffffffffffffffffffffffffffffffff1673ffffffffffffffffffffffffffffffffffffffff1681526020019081526020015f205f8373ffffffffffffffffffffffffffffffffffffffff1673ffffffffffffffffffffffffffffffffffffffff1681526020019081526020015f2054905092915050565b5f60025f9054906101000a900460ff16905090565b5f5ffd5b5f73ffffffffffffffffffffffffffffffffffffffff82169050919050565b5f610a23826109fa565b9050919050565b610a3381610a19565b8114610a3d575f5ffd5b50565b5f81359050610a4e81610a2a565b92915050565b5f819050919050565b610a6681610a54565b8114610a70575f5ffd5b50565b5f81359050610a8181610a5d565b92915050565b5f5f60408385031215610a9d57610a9c6109f6565b5b5f610aaa85828601610a40565b9250506020610abb85828601610a73565b9150509250929050565b5f8115159050919050565b610ad981610ac5565b82525050565b5f602082019050610af25f830184610ad0565b92915050565b5f81519050919050565b5f82825260208201905092915050565b8281835e5f83830152505050565b5f601f19601f8301169050919050565b5f610b3a82610af8565b610b448185610b02565b9350610b54818560208601610b12565b610b5d81610b20565b840191505092915050565b5f6020820190508181035f830152610b808184610b30565b905092915050565b5f5f5f60608486031215610b9f57610b9e6109f6565b5b5f610bac86828701610a40565b9350506020610bbd86828701610a40565b9250506040610bce86828701610a73565b9150509250925092565b5f60208284031215610bed57610bec6109f6565b5b5f610bfa84828501610a73565b91505092915050565b5f60208284031215610c1857610c176109f6565b5b5f610c2584828501610a40565b91505092915050565b610c3781610a54565b82525050565b5f602082019050610c505f830184610c2e565b92915050565b5f5f60408385031215610c6c57610c6b6109f6565b5b5f610c7985828601610a40565b9250506020610c8a85828601610a40565b9150509250929050565b5f60ff82169050919050565b610ca981610c94565b82525050565b5f602082019050610cc25f830184610ca0565b92915050565b610cd181610a19565b82525050565b5f602082019050610cea5f830184610cc8565b92915050565b7f4e487b71000000000000000000000000000000000000000000000000000000005f52602260045260245ffd5b5f6002820490506001821680610d3457607f821691505b602082108103610d4757610d46610cf0565b5b50919050565b7f4e487b71000000000000000000000000000000000000000000000000000000005f52601160045260245ffd5b5f610d8482610a54565b9150610d8f83610a54565b9250828203905081811115610da757610da6610d4d565b5b92915050565b5f610db782610a54565b9150610dc283610a54565b9250828201905080821115610dda57610dd9610d4d565b5b9291505056fea26469706673582212206b548167d962bd407d6c974bd276d870be707b8911f9ed12228cdf0ab1b94f0064736f6c634300081f0033","linkReferences":{}},"methodIdentifiers":{"allowance(address,address)":"dd62ed3e","approve(address,uint256)":"095ea7b3","balanceOf(address)":"70a08231","burn(uint256)":"42966c68","getDecimals()":"f0141d84","getName()":"17d7de7c","getSymbol()":"15070401","getTotalSupply()":"c4e41b22","mint(uint256)":"a0712d68","transfer(address,uint256)":"a9059cbb","transferFrom(address,address,uint256)":"23b872dd"},"id":1}