{"abi":[{"type":"constructor","inputs":[{"name":"_name","type":"string","internalType":"string"},{"name":"_symbol","type":"string","internalType":"string"},{"name":"_initialSupply","type":"uint256","internalType":"uint256"}],"stateMutability":"nonpayable"},{"type":"function","name":"allowance","inputs":[{"name":"owner","type":"address","internalType":"address"},{"name":"spender","type":"address","internalType":"address"}],"outputs":[{"name":"","type":"uint256","internalType":"uint256"}],"stateMutability":"view"},{"type":"function","name":"approve","inputs":[{"name":"spender","type":"address","internalType":"address"},{"name":"value","type":"uint256","internalType":"uint256"}],"outputs":[{"name":"","type":"bool","internalType":"bool"}],"stateMutability":"nonpayable"},{"type":"function","name":"balanceOf","inputs":[{"name":"owner","type":"address","internalType":"address"}],"outputs":[{"name":"","type":"uint256","internalType":"uint256"}],"stateMutability":"view"},{"type":"function","name":"burn","inputs":[{"name":"amount","type":"uint256","internalType":"uint256"}],"outputs":[],"stateMutability":"nonpayable"},{"type":"function","name":"getDecimals","inputs":[],"outputs":[{"name":"","type":"uint8","internalType":"uint8"}],"stateMutability":"view"},{"type":"function","name":"getName","inputs":[],"outputs":[{"name":"","type":"string","internalType":"string"}],"stateMutability":"view"},{"type":"function","name":"getSymbol","inputs":[],"outputs":[{"name":"","type":"string","internalType":"string"}],"stateMutability":"view"},{"type":"function","name":"mint","inputs":[{"name":"amount","type":"uint256","internalType":"uint256"}],"outputs":[],"stateMutability":"nonpayable"},{"type":"function","name":"totalSupply","inputs":[],"outputs":[{"name":"","type":"uint256","internalType":"uint256"}],"stateMutability":"view"},{"type":"function","name":"transfer","inputs":[{"name":"to","type":"address","internalType":"address"},{"name":"amount","type":"uint256","internalType":"uint256"}],"outputs":[{"name":"","type":"bool","internalType":"bool"}],"stateMutability":"nonpayable"},{"type":"function","name":"transferFrom","inputs":[{"name":"from","type":"address","internalType":"address"},{"name":"to","type":"address","internalType":"address"},{"name":"amount","type":"uint256","internalType":"uint256"}],"outputs":[{"name":"","type":"bool","internalType":"bool"}],"stateMutability":"nonpayable"},{"type":"event","name":"Approval","inputs":[{"name":"owner","type":"address","indexed":true,"internalType":"address"},{"name":"spender","type":"address","indexed":true,"internalType":"address"},{"name":"value","type":"uint256","indexed":false,"internalType":"uint256"}],"anonymous":false},{"type":"event","name":"Burned","inputs":[{"name":"owner","type":"address","indexed":true,"internalType":"address"},{"name":"amount","type":"uint256","indexed":false,"internalType":"uint256"}],"anonymous":false},{"type":"event","name":"Minted","inputs":[{"name":"owner","type":"address","indexed":true,"internalType":"address"},{"name":"amount","type":"uint256","indexed":false,"internalType":"uint256"}],"anonymous":false},{"type":"event","name":"Transfer","inputs":[{"name":"from","type":"address","indexed":true,"internalType":"address"},{"name":"to","type":"address","indexed":true,"internalType":"address"},{"name":"value","type":"uint256","indexed":false,"internalType":"uint256"}],"anonymous":false},{"type":"error","name":"VaultToken__AddressZero","inputs":[{"name":"addr","type":"address","internalType":"address"}]},{"type":"error","name":"VaultToken__InsufficientAllowance","inputs":[]},{"type":"error","name":"VaultToken__InsufficientBalance","inputs":[]}],"bytecode":{"object":"0x608060405234801561000f575f5ffd5b5060405161169b38038061169b8339818101604052810190610031919061023c565b826001908161004091906104cb565b50815f908161004f91906104cb565b50601260025f6101000a81548160ff021916908360ff160217905550806003819055508060045f3373ffffffffffffffffffffffffffffffffffffffff1673ffffffffffffffffffffffffffffffffffffffff1681526020019081526020015f208190555050505061059a565b5f604051905090565b5f5ffd5b5f5ffd5b5f5ffd5b5f5ffd5b5f601f19601f8301169050919050565b7f4e487b71000000000000000000000000000000000000000000000000000000005f52604160045260245ffd5b61011b826100d5565b810181811067ffffffffffffffff8211171561013a576101396100e5565b5b80604052505050565b5f61014c6100bc565b90506101588282610112565b919050565b5f67ffffffffffffffff821115610177576101766100e5565b5b610180826100d5565b9050602081019050919050565b8281835e5f83830152505050565b5f6101ad6101a88461015d565b610143565b9050828152602081018484840111156101c9576101c86100d1565b5b6101d484828561018d565b509392505050565b5f82601f8301126101f0576101ef6100cd565b5b815161020084826020860161019b565b91505092915050565b5f819050919050565b61021b81610209565b8114610225575f5ffd5b50565b5f8151905061023681610212565b92915050565b5f5f5f60608486031215610253576102526100c5565b5b5f84015167ffffffffffffffff8111156102705761026f6100c9565b5b61027c868287016101dc565b935050602084015167ffffffffffffffff81111561029d5761029c6100c9565b5b6102a9868287016101dc565b92505060406102ba86828701610228565b9150509250925092565b5f81519050919050565b7f4e487b71000000000000000000000000000000000000000000000000000000005f52602260045260245ffd5b5f600282049050600182168061031257607f821691505b602082108103610325576103246102ce565b5b50919050565b5f819050815f5260205f209050919050565b5f6020601f8301049050919050565b5f82821b905092915050565b5f600883026103877fffffffffffffffffffffffffffffffffffffffffffffffffffffffffffffffff8261034c565b610391868361034c565b95508019841693508086168417925050509392505050565b5f819050919050565b5f6103cc6103c76103c284610209565b6103a9565b610209565b9050919050565b5f819050919050565b6103e5836103b2565b6103f96103f1826103d3565b848454610358565b825550505050565b5f5f905090565b610410610401565b61041b8184846103dc565b505050565b5b8181101561043e576104335f82610408565b600181019050610421565b5050565b601f821115610483576104548161032b565b61045d8461033d565b8101602085101561046c578190505b6104806104788561033d565b830182610420565b50505b505050565b5f82821c905092915050565b5f6104a35f1984600802610488565b1980831691505092915050565b5f6104bb8383610494565b9150826002028217905092915050565b6104d4826102c4565b67ffffffffffffffff8111156104ed576104ec6100e5565b5b6104f782546102fb565b610502828285610442565b5f60209050601f831160018114610533575f8415610521578287015190505b61052b85826104b0565b865550610592565b601f1984166105418661032b565b5f5b8281101561056857848901518255600182019150602085019450602081019050610543565b868310156105855784890151610581601f891682610494565b8355505b6001600288020188555050505b505050505050565b6110f4806105a75f395ff3fe608060405234801561000f575f5ffd5b50600436106100a7575f3560e01c806342966c681161006f57806342966c681461016557806370a0823114610181578063a0712d68146101b1578063a9059cbb146101cd578063dd62ed3e146101fd578063f0141d841461022d576100a7565b8063095ea7b3146100ab57806315070401146100db57806317d7de7c146100f957806318160ddd1461011757806323b872dd14610135575b5f5ffd5b6100c560048036038101906100c09190610d65565b61024b565b6040516100d29190610dbd565b60405180910390f35b6100e36103a8565b6040516100f09190610e46565b60405180910390f35b610101610437565b60405161010e9190610e46565b60405180910390f35b61011f6104c7565b60405161012c9190610e75565b60405180910390f35b61014f600480360381019061014a9190610e8e565b6104cd565b60405161015c9190610dbd565b60405180910390f35b61017f600480360381019061017a9190610ede565b61080b565b005b61019b60048036038101906101969190610f09565b61093e565b6040516101a89190610e75565b60405180910390f35b6101cb60048036038101906101c69190610ede565b610984565b005b6101e760048036038101906101e29190610d65565b610a40565b6040516101f49190610dbd565b60405180910390f35b61021760048036038101906102129190610f34565b610c3d565b6040516102249190610e75565b60405180910390f35b610235610cbf565b6040516102429190610f8d565b60405180910390f35b5f5f73ffffffffffffffffffffffffffffffffffffffff168373ffffffffffffffffffffffffffffffffffffffff16036102bc57826040517f076d0c0a0000000000000000000000000000000000000000000000000000000081526004016102b39190610fb5565b60405180910390fd5b8160055f3373ffffffffffffffffffffffffffffffffffffffff1673ffffffffffffffffffffffffffffffffffffffff1681526020019081526020015f205f8573ffffffffffffffffffffffffffffffffffffffff1673ffffffffffffffffffffffffffffffffffffffff1681526020019081526020015f20819055508273ffffffffffffffffffffffffffffffffffffffff163373ffffffffffffffffffffffffffffffffffffffff167f8c5be1e5ebec7d5bd14f71427d1e84f3dd0314c0f7b2291e5b200ac8c7c3b925846040516103969190610e75565b60405180910390a36001905092915050565b60605f80546103b690610ffb565b80601f01602080910402602001604051908101604052809291908181526020018280546103e290610ffb565b801561042d5780601f106104045761010080835404028352916020019161042d565b820191905f5260205f20905b81548152906001019060200180831161041057829003601f168201915b5050505050905090565b60606001805461044690610ffb565b80601f016020809104026020016040519081016040528092919081815260200182805461047290610ffb565b80156104bd5780601f10610494576101008083540402835291602001916104bd565b820191905f5260205f20905b8154815290600101906020018083116104a057829003601f168201915b5050505050905090565b60035481565b5f5f73ffffffffffffffffffffffffffffffffffffffff168373ffffffffffffffffffffffffffffffffffffffff160361053e57826040517f076d0c0a0000000000000000000000000000000000000000000000000000000081526004016105359190610fb5565b60405180910390fd5b8160045f8673ffffffffffffffffffffffffffffffffffffffff1673ffffffffffffffffffffffffffffffffffffffff1681526020019081526020015f205410156105b5576040517faa1d7cd600000000000000000000000000000000000000000000000000000000815260040160405180910390fd5b8160055f8673ffffffffffffffffffffffffffffffffffffffff1673ffffffffffffffffffffffffffffffffffffffff1681526020019081526020015f205f3373ffffffffffffffffffffffffffffffffffffffff1673ffffffffffffffffffffffffffffffffffffffff1681526020019081526020015f20541015610667576040517f89c8901600000000000000000000000000000000000000000000000000000000815260040160405180910390fd5b8160055f8673ffffffffffffffffffffffffffffffffffffffff1673ffffffffffffffffffffffffffffffffffffffff1681526020019081526020015f205f3373ffffffffffffffffffffffffffffffffffffffff1673ffffffffffffffffffffffffffffffffffffffff1681526020019081526020015f205f8282546106ee9190611058565b925050819055508160045f8673ffffffffffffffffffffffffffffffffffffffff1673ffffffffffffffffffffffffffffffffffffffff1681526020019081526020015f205f8282546107419190611058565b925050819055508160045f8573ffffffffffffffffffffffffffffffffffffffff1673ffffffffffffffffffffffffffffffffffffffff1681526020019081526020015f205f828254610794919061108b565b925050819055508273ffffffffffffffffffffffffffffffffffffffff168473ffffffffffffffffffffffffffffffffffffffff167fddf252ad1be2c89b69c2b068fc378daa952ba7f163c4a11628f55a4df523b3ef846040516107f89190610e75565b60405180910390a3600190509392505050565b8060045f3373ffffffffffffffffffffffffffffffffffffffff1673ffffffffffffffffffffffffffffffffffffffff1681526020019081526020015f20541015610882576040517faa1d7cd600000000000000000000000000000000000000000000000000000000815260040160405180910390fd5b8060045f3373ffffffffffffffffffffffffffffffffffffffff1673ffffffffffffffffffffffffffffffffffffffff1681526020019081526020015f205f8282546108ce9190611058565b925050819055508060035f8282546108e69190611058565b925050819055503373ffffffffffffffffffffffffffffffffffffffff167f696de425f79f4a40bc6d2122ca50507f0efbeabbff86a84871b7196ab8ea8df7826040516109339190610e75565b60405180910390a250565b5f60045f8373ffffffffffffffffffffffffffffffffffffffff1673ffffffffffffffffffffffffffffffffffffffff1681526020019081526020015f20549050919050565b8060045f3373ffffffffffffffffffffffffffffffffffffffff1673ffffffffffffffffffffffffffffffffffffffff1681526020019081526020015f205f8282546109d0919061108b565b925050819055508060035f8282546109e8919061108b565b925050819055503373ffffffffffffffffffffffffffffffffffffffff167f30385c845b448a36257a6a1716e6ad2e1bc2cbe333cde1e69fe849ad6511adfe82604051610a359190610e75565b60405180910390a250565b5f5f73ffffffffffffffffffffffffffffffffffffffff168373ffffffffffffffffffffffffffffffffffffffff1603610ab157826040517f076d0c0a000000000000000000000000000000000000000000000000000000008152600401610aa89190610fb5565b60405180910390fd5b8160045f3373ffffffffffffffffffffffffffffffffffffffff1673ffffffffffffffffffffffffffffffffffffffff1681526020019081526020015f20541015610b28576040517faa1d7cd600000000000000000000000000000000000000000000000000000000815260040160405180910390fd5b8160045f3373ffffffffffffffffffffffffffffffffffffffff1673ffffffffffffffffffffffffffffffffffffffff1681526020019081526020015f205f828254610b749190611058565b925050819055508160045f8573ffffffffffffffffffffffffffffffffffffffff1673ffffffffffffffffffffffffffffffffffffffff1681526020019081526020015f205f828254610bc7919061108b565b925050819055508273ffffffffffffffffffffffffffffffffffffffff163373ffffffffffffffffffffffffffffffffffffffff167fddf252ad1be2c89b69c2b068fc378daa952ba7f163c4a11628f55a4df523b3ef84604051610c2b9190610e75565b60405180910390a36001905092915050565b5f60055f8473ffffffffffffffffffffffffffffffffffffffff1673ffffffffffffffffffffffffffffffffffffffff1681526020019081526020015f205f8373ffffffffffffffffffffffffffffffffffffffff1673ffffffffffffffffffffffffffffffffffffffff1681526020019081526020015f2054905092915050565b5f60025f9054906101000a900460ff16905090565b5f5ffd5b5f73ffffffffffffffffffffffffffffffffffffffff82169050919050565b5f610d0182610cd8565b9050919050565b610d1181610cf7565b8114610d1b575f5ffd5b50565b5f81359050610d2c81610d08565b92915050565b5f819050919050565b610d4481610d32565b8114610d4e575f5ffd5b50565b5f81359050610d5f81610d3b565b92915050565b5f5f60408385031215610d7b57610d7a610cd4565b5b5f610d8885828601610d1e565b9250506020610d9985828601610d51565b9150509250929050565b5f8115159050919050565b610db781610da3565b82525050565b5f602082019050610dd05f830184610dae565b92915050565b5f81519050919050565b5f82825260208201905092915050565b8281835e5f83830152505050565b5f601f19601f8301169050919050565b5f610e1882610dd6565b610e228185610de0565b9350610e32818560208601610df0565b610e3b81610dfe565b840191505092915050565b5f6020820190508181035f830152610e5e8184610e0e565b905092915050565b610e6f81610d32565b82525050565b5f602082019050610e885f830184610e66565b92915050565b5f5f5f60608486031215610ea557610ea4610cd4565b5b5f610eb286828701610d1e565b9350506020610ec386828701610d1e565b9250506040610ed486828701610d51565b9150509250925092565b5f60208284031215610ef357610ef2610cd4565b5b5f610f0084828501610d51565b91505092915050565b5f60208284031215610f1e57610f1d610cd4565b5b5f610f2b84828501610d1e565b91505092915050565b5f5f60408385031215610f4a57610f49610cd4565b5b5f610f5785828601610d1e565b9250506020610f6885828601610d1e565b9150509250929050565b5f60ff82169050919050565b610f8781610f72565b82525050565b5f602082019050610fa05f830184610f7e565b92915050565b610faf81610cf7565b82525050565b5f602082019050610fc85f830184610fa6565b92915050565b7f4e487b71000000000000000000000000000000000000000000000000000000005f52602260045260245ffd5b5f600282049050600182168061101257607f821691505b60208210810361102557611024610fce565b5b50919050565b7f4e487b71000000000000000000000000000000000000000000000000000000005f52601160045260245ffd5b5f61106282610d32565b915061106d83610d32565b92508282039050818111156110855761108461102b565b5b92915050565b5f61109582610d32565b91506110a083610d32565b92508282019050808211156110b8576110b761102b565b5b9291505056fea2646970667358221220d9b7fc3b6a375e98644ef5c340cd5c3c2dce79b388a2b052214327c42f75183464736f6c634300081f0033","linkReferences":{}},"methodIdentifiers":{"allowance(address,address)":"dd62ed3e","approve(address,uint256)":"095ea7b3","balanceOf(address)":"70a08231","burn(uint256)":"42966c68","getDecimals()":"f0141d84","getName()":"17d7de7c","getSymbol()":"15070401","mint(uint256)":"a0712d68","totalSupply()":"18160ddd","transfer(address,uint256)":"a9059cbb","transferFrom(address,address,uint256)":"23b872dd"},"id":0}