{"abi":[{"type":"function","name":"ENTRY_FEE","inputs":[],"outputs":[{"name":"","type":"uint256","internalType":"uint256"}],"stateMutability":"view"},{"type":"function","name":"enterLottery","inputs":[{"name":"player","type":"address","internalType":"address"},{"name":"enterFee","type":"uint256","internalType":"uint256"}],"outputs":[],"stateMutability":"nonpayable"},{"type":"function","name":"isEntered","inputs":[{"name":"","type":"address","internalType":"address"}],"outputs":[{"name":"","type":"bool","internalType":"bool"}],"stateMutability":"view"},{"type":"error","name":"Lottery__EntryFeeToLow","inputs":[]},{"type":"error","name":"Lottery__InvalidAddress","inputs":[]},{"type":"error","name":"Lottery__PlayerAlreadyEntered","inputs":[]}],"bytecode":{"object":"0x6080604052348015600e575f5ffd5b506104408061001c5f395ff3fe608060405234801561000f575f5ffd5b506004361061003f575f3560e01c8063194b78f814610043578063a559470b1461005f578063f6d361cc1461008f575b5f5ffd5b61005d60048036038101906100589190610346565b6100ad565b005b61007960048036038101906100749190610384565b61028c565b60405161008691906103c9565b60405180910390f35b6100976102a9565b6040516100a491906103f1565b60405180910390f35b5f73ffffffffffffffffffffffffffffffffffffffff168273ffffffffffffffffffffffffffffffffffffffff1603610112576040517f025f6db200000000000000000000000000000000000000000000000000000000815260040160405180910390fd5b678ac7230489e80000811015610154576040517f99191af700000000000000000000000000000000000000000000000000000000815260040160405180910390fd5b60015f8373ffffffffffffffffffffffffffffffffffffffff1673ffffffffffffffffffffffffffffffffffffffff1681526020019081526020015f205f9054906101000a900460ff16156101d5576040517ff592c87500000000000000000000000000000000000000000000000000000000815260040160405180910390fd5b5f82908060018154018082558091505060019003905f5260205f20015f9091909190916101000a81548173ffffffffffffffffffffffffffffffffffffffff021916908373ffffffffffffffffffffffffffffffffffffffff1602179055506001805f8473ffffffffffffffffffffffffffffffffffffffff1673ffffffffffffffffffffffffffffffffffffffff1681526020019081526020015f205f6101000a81548160ff0219169083151502179055505050565b6001602052805f5260405f205f915054906101000a900460ff1681565b678ac7230489e8000081565b5f5ffd5b5f73ffffffffffffffffffffffffffffffffffffffff82169050919050565b5f6102e2826102b9565b9050919050565b6102f2816102d8565b81146102fc575f5ffd5b50565b5f8135905061030d816102e9565b92915050565b5f819050919050565b61032581610313565b811461032f575f5ffd5b50565b5f813590506103408161031c565b92915050565b5f5f6040838503121561035c5761035b6102b5565b5b5f610369858286016102ff565b925050602061037a85828601610332565b9150509250929050565b5f60208284031215610399576103986102b5565b5b5f6103a6848285016102ff565b91505092915050565b5f8115159050919050565b6103c3816103af565b82525050565b5f6020820190506103dc5f8301846103ba565b92915050565b6103eb81610313565b82525050565b5f6020820190506104045f8301846103e2565b9291505056fea264697066735822122042efce7eae5bd2f38886c84f85f3720eeb03a9f7d5af21bc614b06a8b21241e364736f6c634300081f0033","linkReferences":{}},"methodIdentifiers":{"ENTRY_FEE()":"f6d361cc","enterLottery(address,uint256)":"194b78f8","isEntered(address)":"a559470b"},"id":0}