{"abi":[{"type":"function","name":"ENTRY_FEE","inputs":[],"outputs":[{"name":"","type":"uint256","internalType":"uint256"}],"stateMutability":"view"},{"type":"function","name":"enterLottery","inputs":[{"name":"player","type":"address","internalType":"address"},{"name":"enterFee","type":"uint256","internalType":"uint256"}],"outputs":[],"stateMutability":"nonpayable"},{"type":"function","name":"isEntered","inputs":[{"name":"","type":"address","internalType":"address"}],"outputs":[{"name":"","type":"bool","internalType":"bool"}],"stateMutability":"view"},{"type":"function","name":"pickRandomWinner","inputs":[],"outputs":[],"stateMutability":"nonpayable"},{"type":"error","name":"Lottery__EntryFeeToLow","inputs":[]},{"type":"error","name":"Lottery__InvalidAddress","inputs":[]},{"type":"error","name":"Lottery__PlayerAlreadyEntered","inputs":[]}],"bytecode":{"object":"0x6080604052348015600e575f5ffd5b506104578061001c5f395ff3fe608060405234801561000f575f5ffd5b506004361061004a575f3560e01c8063194b78f81461004e578063898da2291461006a578063a559470b14610074578063f6d361cc146100a4575b5f5ffd5b6100686004803603810190610063919061035d565b6100c2565b005b6100726102a1565b005b61008e6004803603810190610089919061039b565b6102a3565b60405161009b91906103e0565b60405180910390f35b6100ac6102c0565b6040516100b99190610408565b60405180910390f35b5f73ffffffffffffffffffffffffffffffffffffffff168273ffffffffffffffffffffffffffffffffffffffff1603610127576040517f025f6db200000000000000000000000000000000000000000000000000000000815260040160405180910390fd5b678ac7230489e80000811015610169576040517f99191af700000000000000000000000000000000000000000000000000000000815260040160405180910390fd5b60015f8373ffffffffffffffffffffffffffffffffffffffff1673ffffffffffffffffffffffffffffffffffffffff1681526020019081526020015f205f9054906101000a900460ff16156101ea576040517ff592c87500000000000000000000000000000000000000000000000000000000815260040160405180910390fd5b5f82908060018154018082558091505060019003905f5260205f20015f9091909190916101000a81548173ffffffffffffffffffffffffffffffffffffffff021916908373ffffffffffffffffffffffffffffffffffffffff1602179055506001805f8473ffffffffffffffffffffffffffffffffffffffff1673ffffffffffffffffffffffffffffffffffffffff1681526020019081526020015f205f6101000a81548160ff0219169083151502179055505050565b565b6001602052805f5260405f205f915054906101000a900460ff1681565b678ac7230489e8000081565b5f5ffd5b5f73ffffffffffffffffffffffffffffffffffffffff82169050919050565b5f6102f9826102d0565b9050919050565b610309816102ef565b8114610313575f5ffd5b50565b5f8135905061032481610300565b92915050565b5f819050919050565b61033c8161032a565b8114610346575f5ffd5b50565b5f8135905061035781610333565b92915050565b5f5f60408385031215610373576103726102cc565b5b5f61038085828601610316565b925050602061039185828601610349565b9150509250929050565b5f602082840312156103b0576103af6102cc565b5b5f6103bd84828501610316565b91505092915050565b5f8115159050919050565b6103da816103c6565b82525050565b5f6020820190506103f35f8301846103d1565b92915050565b6104028161032a565b82525050565b5f60208201905061041b5f8301846103f9565b9291505056fea2646970667358221220ca56172958a490807c1b9554a76d7c8a21fdd59b378732850d50d400124dd67164736f6c634300081f0033","linkReferences":{}},"methodIdentifiers":{"ENTRY_FEE()":"f6d361cc","enterLottery(address,uint256)":"194b78f8","isEntered(address)":"a559470b","pickRandomWinner()":"898da229"},"id":28}