{"abi":[{"type":"function","name":"num","inputs":[],"outputs":[{"name":"","type":"uint256","internalType":"uint256"}],"stateMutability":"view"},{"type":"function","name":"sender","inputs":[],"outputs":[{"name":"","type":"address","internalType":"address"}],"stateMutability":"view"},{"type":"function","name":"setVars","inputs":[{"name":"_contract","type":"address","internalType":"address"},{"name":"_num","type":"uint256","internalType":"uint256"}],"outputs":[],"stateMutability":"payable"},{"type":"function","name":"value","inputs":[],"outputs":[{"name":"","type":"uint256","internalType":"uint256"}],"stateMutability":"view"}],"bytecode":{"object":"0x6080604052348015600e575f5ffd5b5061047a8061001c5f395ff3fe60806040526004361061003e575f3560e01c80633fa4f245146100425780634e70b1dc1461006c57806367e404ce14610096578063d1e0f308146100c0575b5f5ffd5b34801561004d575f5ffd5b506100566100dc565b604051610063919061025d565b60405180910390f35b348015610077575f5ffd5b506100806100e2565b60405161008d919061025d565b60405180910390f35b3480156100a1575f5ffd5b506100aa6100e7565b6040516100b791906102b5565b60405180910390f35b6100da60048036038101906100d59190610326565b61010c565b005b60025481565b5f5481565b60015f9054906101000a900473ffffffffffffffffffffffffffffffffffffffff1681565b5f8273ffffffffffffffffffffffffffffffffffffffff1682604051602401610135919061025d565b6040516020818303038152906040527f6466414b000000000000000000000000000000000000000000000000000000007bffffffffffffffffffffffffffffffffffffffffffffffffffffffff19166020820180517bffffffffffffffffffffffffffffffffffffffffffffffffffffffff83818316178352505050506040516101bf91906103b6565b5f60405180830381855af49150503d805f81146101f7576040519150601f19603f3d011682016040523d82523d5f602084013e6101fc565b606091505b5050905080610240576040517f08c379a000000000000000000000000000000000000000000000000000000000815260040161023790610426565b60405180910390fd5b505050565b5f819050919050565b61025781610245565b82525050565b5f6020820190506102705f83018461024e565b92915050565b5f73ffffffffffffffffffffffffffffffffffffffff82169050919050565b5f61029f82610276565b9050919050565b6102af81610295565b82525050565b5f6020820190506102c85f8301846102a6565b92915050565b5f5ffd5b6102db81610295565b81146102e5575f5ffd5b50565b5f813590506102f6816102d2565b92915050565b61030581610245565b811461030f575f5ffd5b50565b5f81359050610320816102fc565b92915050565b5f5f6040838503121561033c5761033b6102ce565b5b5f610349858286016102e8565b925050602061035a85828601610312565b9150509250929050565b5f81519050919050565b5f81905092915050565b8281835e5f83830152505050565b5f61039082610364565b61039a818561036e565b93506103aa818560208601610378565b80840191505092915050565b5f6103c18284610386565b915081905092915050565b5f82825260208201905092915050565b7f64656c656761746563616c6c206661696c6564000000000000000000000000005f82015250565b5f6104106013836103cc565b915061041b826103dc565b602082019050919050565b5f6020820190508181035f83015261043d81610404565b905091905056fea2646970667358221220b0e4355fce1cbfced9d09ee9db974c1daa0e5e39a7de723af59591520417f6f664736f6c634300081e0033","linkReferences":{}},"methodIdentifiers":{"num()":"4e70b1dc","sender()":"67e404ce","setVars(address,uint256)":"d1e0f308","value()":"3fa4f245"},"id":35}