{"abi":[{"type":"function","name":"num","inputs":[],"outputs":[{"name":"","type":"uint256","internalType":"uint256"}],"stateMutability":"view"},{"type":"function","name":"sender","inputs":[],"outputs":[{"name":"","type":"address","internalType":"address"}],"stateMutability":"view"},{"type":"function","name":"setVars","inputs":[{"name":"_num","type":"uint256","internalType":"uint256"}],"outputs":[],"stateMutability":"payable"},{"type":"function","name":"value","inputs":[],"outputs":[{"name":"","type":"uint256","internalType":"uint256"}],"stateMutability":"view"}],"bytecode":{"object":"0x6080604052348015600e575f5ffd5b506102748061001c5f395ff3fe60806040526004361061003e575f3560e01c80633fa4f245146100425780634e70b1dc1461006c5780636466414b1461009657806367e404ce146100b2575b5f5ffd5b34801561004d575f5ffd5b506100566100dc565b6040516100639190610174565b60405180910390f35b348015610077575f5ffd5b506100806100e2565b60405161008d9190610174565b60405180910390f35b6100b060048036038101906100ab91906101bb565b6100e7565b005b3480156100bd575f5ffd5b506100c6610137565b6040516100d39190610225565b60405180910390f35b60025481565b5f5481565b805f819055503360015f6101000a81548173ffffffffffffffffffffffffffffffffffffffff021916908373ffffffffffffffffffffffffffffffffffffffff1602179055503460028190555050565b60015f9054906101000a900473ffffffffffffffffffffffffffffffffffffffff1681565b5f819050919050565b61016e8161015c565b82525050565b5f6020820190506101875f830184610165565b92915050565b5f5ffd5b61019a8161015c565b81146101a4575f5ffd5b50565b5f813590506101b581610191565b92915050565b5f602082840312156101d0576101cf61018d565b5b5f6101dd848285016101a7565b91505092915050565b5f73ffffffffffffffffffffffffffffffffffffffff82169050919050565b5f61020f826101e6565b9050919050565b61021f81610205565b82525050565b5f6020820190506102385f830184610216565b9291505056fea26469706673582212203fcb43de7819e34c0aa7bf217e1ab3f3f7fdf89adbf6ab2f05a6d111b1604da264736f6c634300081e0033","linkReferences":{}},"methodIdentifiers":{"num()":"4e70b1dc","sender()":"67e404ce","setVars(uint256)":"6466414b","value()":"3fa4f245"},"id":35}