{"abi":[{"type":"fallback","stateMutability":"payable"},{"type":"function","name":"getDataToTransact","inputs":[{"name":"numberToUpdate","type":"uint256","internalType":"uint256"}],"outputs":[{"name":"","type":"bytes","internalType":"bytes"}],"stateMutability":"pure"},{"type":"function","name":"readStorage","inputs":[],"outputs":[{"name":"valueAtStorageSlotZero","type":"uint256","internalType":"uint256"}],"stateMutability":"view"},{"type":"function","name":"setImplementation","inputs":[{"name":"newImplementation","type":"address","internalType":"address"}],"outputs":[],"stateMutability":"nonpayable"}],"bytecode":{"object":"0x6080604052348015600e575f5ffd5b506103c38061001c5f395ff3fe608060405260043610610037575f3560e01c806331fadddf14610042578063d784d4261461006c578063df31349e1461009457610038565b5b6100406100d0565b005b34801561004d575f5ffd5b506100566100e2565b6040516100639190610206565b60405180910390f35b348015610077575f5ffd5b50610092600480360381019061008d919061027d565b6100ea565b005b34801561009f575f5ffd5b506100ba60048036038101906100b591906102d2565b610110565b6040516100c7919061036d565b60405180910390f35b6100e06100db6101a7565b6101cf565b565b5f5f54905090565b807f360894a13ba1a3210667c828492db98dca3e2076cc3735a920a3ca505d382bbc5550565b6060816040516024016101239190610206565b6040516020818303038152906040527f55241077000000000000000000000000000000000000000000000000000000007bffffffffffffffffffffffffffffffffffffffffffffffffffffffff19166020820180517bffffffffffffffffffffffffffffffffffffffffffffffffffffffff83818316178352505050509050919050565b5f7f360894a13ba1a3210667c828492db98dca3e2076cc3735a920a3ca505d382bbc54905090565b365f5f375f5f365f845af43d5f5f3e805f81146101ea573d5ff35b3d5ffd5b5f819050919050565b610200816101ee565b82525050565b5f6020820190506102195f8301846101f7565b92915050565b5f5ffd5b5f73ffffffffffffffffffffffffffffffffffffffff82169050919050565b5f61024c82610223565b9050919050565b61025c81610242565b8114610266575f5ffd5b50565b5f8135905061027781610253565b92915050565b5f602082840312156102925761029161021f565b5b5f61029f84828501610269565b91505092915050565b6102b1816101ee565b81146102bb575f5ffd5b50565b5f813590506102cc816102a8565b92915050565b5f602082840312156102e7576102e661021f565b5b5f6102f4848285016102be565b91505092915050565b5f81519050919050565b5f82825260208201905092915050565b8281835e5f83830152505050565b5f601f19601f8301169050919050565b5f61033f826102fd565b6103498185610307565b9350610359818560208601610317565b61036281610325565b840191505092915050565b5f6020820190508181035f8301526103858184610335565b90509291505056fea26469706673582212202e1e8e7941fcb5e661acab311b7b42b90d68534f640b02f87db5062720a5657d64736f6c634300081e0033","linkReferences":{}},"methodIdentifiers":{"getDataToTransact(uint256)":"df31349e","readStorage()":"31fadddf","setImplementation(address)":"d784d426"},"id":36}