{"abi":[{"type":"function","name":"UPGRADE_INTERFACE_VERSION","inputs":[],"outputs":[{"name":"","type":"string","internalType":"string"}],"stateMutability":"view"},{"type":"function","name":"getNumber","inputs":[],"outputs":[{"name":"","type":"uint256","internalType":"uint256"}],"stateMutability":"view"},{"type":"function","name":"proxiableUUID","inputs":[],"outputs":[{"name":"","type":"bytes32","internalType":"bytes32"}],"stateMutability":"view"},{"type":"function","name":"setNumber","inputs":[{"name":"_number","type":"uint256","internalType":"uint256"}],"outputs":[],"stateMutability":"nonpayable"},{"type":"function","name":"upgradeToAndCall","inputs":[{"name":"newImplementation","type":"address","internalType":"address"},{"name":"data","type":"bytes","internalType":"bytes"}],"outputs":[],"stateMutability":"payable"},{"type":"function","name":"version","inputs":[],"outputs":[{"name":"","type":"uint256","internalType":"uint256"}],"stateMutability":"pure"},{"type":"event","name":"Upgraded","inputs":[{"name":"implementation","type":"address","indexed":true,"internalType":"address"}],"anonymous":false},{"type":"error","name":"AddressEmptyCode","inputs":[{"name":"target","type":"address","internalType":"address"}]},{"type":"error","name":"ERC1967InvalidImplementation","inputs":[{"name":"implementation","type":"address","internalType":"address"}]},{"type":"error","name":"ERC1967NonPayable","inputs":[]},{"type":"error","name":"FailedCall","inputs":[]},{"type":"error","name":"UUPSUnauthorizedCallContext","inputs":[]},{"type":"error","name":"UUPSUnsupportedProxiableUUID","inputs":[{"name":"slot","type":"bytes32","internalType":"bytes32"}]}],"bytecode":{"object":"0x60a06040523073ffffffffffffffffffffffffffffffffffffffff1660809073ffffffffffffffffffffffffffffffffffffffff168152503480156041575f5ffd5b50608051610b666100685f395f81816101e80152818161023d01526103ef0152610b665ff3fe608060405260043610610054575f3560e01c80633fb5c1cb146100585780634f1ef2861461008057806352d1902d1461009c57806354fd4d50146100c6578063ad3cb1cc146100f0578063f2c9ecd81461011a575b5f5ffd5b348015610063575f5ffd5b5061007e600480360381019061007991906107bf565b610144565b005b61009a60048036038101906100959190610980565b61014d565b005b3480156100a7575f5ffd5b506100b061016c565b6040516100bd91906109f2565b60405180910390f35b3480156100d1575f5ffd5b506100da61019d565b6040516100e79190610a1a565b60405180910390f35b3480156100fb575f5ffd5b506101046101a5565b6040516101119190610a93565b60405180910390f35b348015610125575f5ffd5b5061012e6101de565b60405161013b9190610a1a565b60405180910390f35b805f8190555050565b6101556101e6565b61015e826102cc565b61016882826102cf565b5050565b5f6101756103ed565b7f360894a13ba1a3210667c828492db98dca3e2076cc3735a920a3ca505d382bbc5f1b905090565b5f6002905090565b6040518060400160405280600581526020017f352e302e3000000000000000000000000000000000000000000000000000000081525081565b5f5f54905090565b7f000000000000000000000000000000000000000000000000000000000000000073ffffffffffffffffffffffffffffffffffffffff163073ffffffffffffffffffffffffffffffffffffffff16148061029357507f000000000000000000000000000000000000000000000000000000000000000073ffffffffffffffffffffffffffffffffffffffff1661027a610474565b73ffffffffffffffffffffffffffffffffffffffff1614155b156102ca576040517fe07c8dba00000000000000000000000000000000000000000000000000000000815260040160405180910390fd5b565b50565b8173ffffffffffffffffffffffffffffffffffffffff166352d1902d6040518163ffffffff1660e01b8152600401602060405180830381865afa92505050801561033757506040513d601f19601f820116820180604052508101906103349190610add565b60015b61037857816040517f4c9c8ce300000000000000000000000000000000000000000000000000000000815260040161036f9190610b17565b60405180910390fd5b7f360894a13ba1a3210667c828492db98dca3e2076cc3735a920a3ca505d382bbc5f1b81146103de57806040517faa1d49a40000000000000000000000000000000000000000000000000000000081526004016103d591906109f2565b60405180910390fd5b6103e883836104c7565b505050565b7f000000000000000000000000000000000000000000000000000000000000000073ffffffffffffffffffffffffffffffffffffffff163073ffffffffffffffffffffffffffffffffffffffff1614610472576040517fe07c8dba00000000000000000000000000000000000000000000000000000000815260040160405180910390fd5b565b5f6104a07f360894a13ba1a3210667c828492db98dca3e2076cc3735a920a3ca505d382bbc5f1b610539565b5f015f9054906101000a900473ffffffffffffffffffffffffffffffffffffffff16905090565b6104d082610542565b8173ffffffffffffffffffffffffffffffffffffffff167fbc7cd75a20ee27fd9adebab32041f755214dbc6bffa90cc0225b39da2e5c2d3b60405160405180910390a25f8151111561052c57610526828261060b565b50610535565b6105346106fc565b5b5050565b5f819050919050565b5f8173ffffffffffffffffffffffffffffffffffffffff163b0361059d57806040517f4c9c8ce30000000000000000000000000000000000000000000000000000000081526004016105949190610b17565b60405180910390fd5b806105c97f360894a13ba1a3210667c828492db98dca3e2076cc3735a920a3ca505d382bbc5f1b610539565b5f015f6101000a81548173ffffffffffffffffffffffffffffffffffffffff021916908373ffffffffffffffffffffffffffffffffffffffff16021790555050565b60605f6106188484610738565b905080801561064e57505f61062b61074c565b118061064d57505f8473ffffffffffffffffffffffffffffffffffffffff163b115b5b156106635761065b610753565b9150506106f6565b80156106a657836040517f9996b31500000000000000000000000000000000000000000000000000000000815260040161069d9190610b17565b60405180910390fd5b5f6106af61074c565b11156106c2576106bd610770565b6106f4565b6040517fd6bda27500000000000000000000000000000000000000000000000000000000815260040160405180910390fd5b505b92915050565b5f341115610736576040517fb398979f00000000000000000000000000000000000000000000000000000000815260040160405180910390fd5b565b5f5f5f835160208501865af4905092915050565b5f3d905090565b606060405190503d81523d5f602083013e3d602001810160405290565b6040513d5f823e3d81fd5b5f604051905090565b5f5ffd5b5f5ffd5b5f819050919050565b61079e8161078c565b81146107a8575f5ffd5b50565b5f813590506107b981610795565b92915050565b5f602082840312156107d4576107d3610784565b5b5f6107e1848285016107ab565b91505092915050565b5f73ffffffffffffffffffffffffffffffffffffffff82169050919050565b5f610813826107ea565b9050919050565b61082381610809565b811461082d575f5ffd5b50565b5f8135905061083e8161081a565b92915050565b5f5ffd5b5f5ffd5b5f601f19601f8301169050919050565b7f4e487b71000000000000000000000000000000000000000000000000000000005f52604160045260245ffd5b6108928261084c565b810181811067ffffffffffffffff821117156108b1576108b061085c565b5b80604052505050565b5f6108c361077b565b90506108cf8282610889565b919050565b5f67ffffffffffffffff8211156108ee576108ed61085c565b5b6108f78261084c565b9050602081019050919050565b828183375f83830152505050565b5f61092461091f846108d4565b6108ba565b9050828152602081018484840111156109405761093f610848565b5b61094b848285610904565b509392505050565b5f82601f83011261096757610966610844565b5b8135610977848260208601610912565b91505092915050565b5f5f6040838503121561099657610995610784565b5b5f6109a385828601610830565b925050602083013567ffffffffffffffff8111156109c4576109c3610788565b5b6109d085828601610953565b9150509250929050565b5f819050919050565b6109ec816109da565b82525050565b5f602082019050610a055f8301846109e3565b92915050565b610a148161078c565b82525050565b5f602082019050610a2d5f830184610a0b565b92915050565b5f81519050919050565b5f82825260208201905092915050565b8281835e5f83830152505050565b5f610a6582610a33565b610a6f8185610a3d565b9350610a7f818560208601610a4d565b610a888161084c565b840191505092915050565b5f6020820190508181035f830152610aab8184610a5b565b905092915050565b610abc816109da565b8114610ac6575f5ffd5b50565b5f81519050610ad781610ab3565b92915050565b5f60208284031215610af257610af1610784565b5b5f610aff84828501610ac9565b91505092915050565b610b1181610809565b82525050565b5f602082019050610b2a5f830184610b08565b9291505056fea2646970667358221220cf590f3d323fb79bc6d0aa5d12903272a54ecb91a4a195f472b910cede1b519064736f6c634300081e0033","linkReferences":{}},"methodIdentifiers":{"UPGRADE_INTERFACE_VERSION()":"ad3cb1cc","getNumber()":"f2c9ecd8","proxiableUUID()":"52d1902d","setNumber(uint256)":"3fb5c1cb","upgradeToAndCall(address,bytes)":"4f1ef286","version()":"54fd4d50"},"id":34}