{"abi":[{"type":"function","name":"multi","inputs":[],"outputs":[{"name":"c","type":"uint256","internalType":"uint256"},{"name":"d","type":"uint256","internalType":"uint256"}],"stateMutability":"view"},{"type":"function","name":"single","inputs":[],"outputs":[{"name":"a","type":"uint128","internalType":"uint128"},{"name":"b","type":"uint128","internalType":"uint128"}],"stateMutability":"view"}],"bytecode":{"object":"0x6080604052604051806040016040528060016fffffffffffffffffffffffffffffffff16815260200160026fffffffffffffffffffffffffffffffff168152505f5f820151815f015f6101000a8154816fffffffffffffffffffffffffffffffff02191690836fffffffffffffffffffffffffffffffff1602179055506020820151815f0160106101000a8154816fffffffffffffffffffffffffffffffff02191690836fffffffffffffffffffffffffffffffff1602179055505050604051806040016040528060038152602001600481525060015f820151815f01556020820151816001015550503480156100f4575f5ffd5b50610193806101025f395ff3fe608060405234801561000f575f5ffd5b5060043610610034575f3560e01c80631b8f5d5014610038578063de3e828e14610057575b5f5ffd5b610040610076565b60405161004e9291906100e5565b60405180910390f35b61005f610087565b60405161006d929190610136565b60405180910390f35b6001805f0154908060010154905082565b5f805f015f9054906101000a90046fffffffffffffffffffffffffffffffff1690805f0160109054906101000a90046fffffffffffffffffffffffffffffffff16905082565b5f819050919050565b6100df816100cd565b82525050565b5f6040820190506100f85f8301856100d6565b61010560208301846100d6565b9392505050565b5f6fffffffffffffffffffffffffffffffff82169050919050565b6101308161010c565b82525050565b5f6040820190506101495f830185610127565b6101566020830184610127565b939250505056fea264697066735822122097cae92ab9bfd6742053e6b5a9c59748b6edd3402d6ad49706f58f244faf7df164736f6c634300081e0033","linkReferences":{}},"methodIdentifiers":{"multi()":"1b8f5d50","single()":"de3e828e"},"id":19}